{
  "_format": "hh-sol-artifact-1",
  "contractName": "StakePool",
  "sourceName": "contracts/StakePool.sol",
  "abi": [
    {
      "inputs": [
        {
          "internalType": "contract IERC20",
          "name": "_stakingToken",
          "type": "address"
        },
        {
          "internalType": "contract IERC20",
          "name": "_rewardToken",
          "type": "address"
        },
        {
          "internalType": "address",
          "name": "initialOwner",
          "type": "address"
        }
      ],
      "stateMutability": "nonpayable",
      "type": "constructor"
    },
    {
      "inputs": [
        {
          "internalType": "address",
          "name": "owner",
          "type": "address"
        }
      ],
      "name": "OwnableInvalidOwner",
      "type": "error"
    },
    {
      "inputs": [
        {
          "internalType": "address",
          "name": "account",
          "type": "address"
        }
      ],
      "name": "OwnableUnauthorizedAccount",
      "type": "error"
    },
    {
      "inputs": [],
      "name": "ReentrancyGuardReentrantCall",
      "type": "error"
    },
    {
      "anonymous": false,
      "inputs": [
        {
          "indexed": true,
          "internalType": "address",
          "name": "previousOwner",
          "type": "address"
        },
        {
          "indexed": true,
          "internalType": "address",
          "name": "newOwner",
          "type": "address"
        }
      ],
      "name": "OwnershipTransferred",
      "type": "event"
    },
    {
      "inputs": [
        {
          "internalType": "address",
          "name": "",
          "type": "address"
        }
      ],
      "name": "balances",
      "outputs": [
        {
          "internalType": "uint256",
          "name": "",
          "type": "uint256"
        }
      ],
      "stateMutability": "view",
      "type": "function"
    },
    {
      "inputs": [
        {
          "internalType": "address",
          "name": "account",
          "type": "address"
        }
      ],
      "name": "earned",
      "outputs": [
        {
          "internalType": "uint256",
          "name": "",
          "type": "uint256"
        }
      ],
      "stateMutability": "view",
      "type": "function"
    },
    {
      "inputs": [],
      "name": "exit",
      "outputs": [],
      "stateMutability": "nonpayable",
      "type": "function"
    },
    {
      "inputs": [],
      "name": "getReward",
      "outputs": [],
      "stateMutability": "nonpayable",
      "type": "function"
    },
    {
      "inputs": [],
      "name": "lastTimeRewardApplicable",
      "outputs": [
        {
          "internalType": "uint256",
          "name": "",
          "type": "uint256"
        }
      ],
      "stateMutability": "view",
      "type": "function"
    },
    {
      "inputs": [],
      "name": "lastUpdateTime",
      "outputs": [
        {
          "internalType": "uint256",
          "name": "",
          "type": "uint256"
        }
      ],
      "stateMutability": "view",
      "type": "function"
    },
    {
      "inputs": [
        {
          "internalType": "uint256",
          "name": "reward",
          "type": "uint256"
        },
        {
          "internalType": "uint256",
          "name": "duration",
          "type": "uint256"
        }
      ],
      "name": "notifyRewardAmount",
      "outputs": [],
      "stateMutability": "nonpayable",
      "type": "function"
    },
    {
      "inputs": [],
      "name": "owner",
      "outputs": [
        {
          "internalType": "address",
          "name": "",
          "type": "address"
        }
      ],
      "stateMutability": "view",
      "type": "function"
    },
    {
      "inputs": [],
      "name": "periodFinish",
      "outputs": [
        {
          "internalType": "uint256",
          "name": "",
          "type": "uint256"
        }
      ],
      "stateMutability": "view",
      "type": "function"
    },
    {
      "inputs": [],
      "name": "renounceOwnership",
      "outputs": [],
      "stateMutability": "nonpayable",
      "type": "function"
    },
    {
      "inputs": [],
      "name": "rewardPerToken",
      "outputs": [
        {
          "internalType": "uint256",
          "name": "",
          "type": "uint256"
        }
      ],
      "stateMutability": "view",
      "type": "function"
    },
    {
      "inputs": [],
      "name": "rewardPerTokenStored",
      "outputs": [
        {
          "internalType": "uint256",
          "name": "",
          "type": "uint256"
        }
      ],
      "stateMutability": "view",
      "type": "function"
    },
    {
      "inputs": [],
      "name": "rewardRate",
      "outputs": [
        {
          "internalType": "uint256",
          "name": "",
          "type": "uint256"
        }
      ],
      "stateMutability": "view",
      "type": "function"
    },
    {
      "inputs": [],
      "name": "rewardToken",
      "outputs": [
        {
          "internalType": "contract IERC20",
          "name": "",
          "type": "address"
        }
      ],
      "stateMutability": "view",
      "type": "function"
    },
    {
      "inputs": [
        {
          "internalType": "address",
          "name": "",
          "type": "address"
        }
      ],
      "name": "rewards",
      "outputs": [
        {
          "internalType": "uint256",
          "name": "",
          "type": "uint256"
        }
      ],
      "stateMutability": "view",
      "type": "function"
    },
    {
      "inputs": [
        {
          "internalType": "uint256",
          "name": "amount",
          "type": "uint256"
        }
      ],
      "name": "stake",
      "outputs": [],
      "stateMutability": "nonpayable",
      "type": "function"
    },
    {
      "inputs": [],
      "name": "stakingToken",
      "outputs": [
        {
          "internalType": "contract IERC20",
          "name": "",
          "type": "address"
        }
      ],
      "stateMutability": "view",
      "type": "function"
    },
    {
      "inputs": [],
      "name": "totalSupply",
      "outputs": [
        {
          "internalType": "uint256",
          "name": "",
          "type": "uint256"
        }
      ],
      "stateMutability": "view",
      "type": "function"
    },
    {
      "inputs": [
        {
          "internalType": "address",
          "name": "newOwner",
          "type": "address"
        }
      ],
      "name": "transferOwnership",
      "outputs": [],
      "stateMutability": "nonpayable",
      "type": "function"
    },
    {
      "inputs": [
        {
          "internalType": "address",
          "name": "",
          "type": "address"
        }
      ],
      "name": "userRewardPerTokenPaid",
      "outputs": [
        {
          "internalType": "uint256",
          "name": "",
          "type": "uint256"
        }
      ],
      "stateMutability": "view",
      "type": "function"
    },
    {
      "inputs": [
        {
          "internalType": "uint256",
          "name": "amount",
          "type": "uint256"
        }
      ],
      "name": "withdraw",
      "outputs": [],
      "stateMutability": "nonpayable",
      "type": "function"
    }
  ],
  "bytecode": "0x60c060405234801561001057600080fd5b506040516116fb3803806116fb83398181016040528101906100329190610291565b80600073ffffffffffffffffffffffffffffffffffffffff168173ffffffffffffffffffffffffffffffffffffffff16036100a55760006040517f1e4fbdf700000000000000000000000000000000000000000000000000000000815260040161009c91906102f3565b60405180910390fd5b6100b48161012c60201b60201c565b50600180819055508273ffffffffffffffffffffffffffffffffffffffff1660808173ffffffffffffffffffffffffffffffffffffffff16815250508173ffffffffffffffffffffffffffffffffffffffff1660a08173ffffffffffffffffffffffffffffffffffffffff168152505050505061030e565b60008060009054906101000a900473ffffffffffffffffffffffffffffffffffffffff169050816000806101000a81548173ffffffffffffffffffffffffffffffffffffffff021916908373ffffffffffffffffffffffffffffffffffffffff1602179055508173ffffffffffffffffffffffffffffffffffffffff168173ffffffffffffffffffffffffffffffffffffffff167f8be0079c531659141344cd1fd0a4f28419497f9722a3daafe3b4186f6b6457e060405160405180910390a35050565b600080fd5b600073ffffffffffffffffffffffffffffffffffffffff82169050919050565b6000610220826101f5565b9050919050565b600061023282610215565b9050919050565b61024281610227565b811461024d57600080fd5b50565b60008151905061025f81610239565b92915050565b61026e81610215565b811461027957600080fd5b50565b60008151905061028b81610265565b92915050565b6000806000606084860312156102aa576102a96101f0565b5b60006102b886828701610250565b93505060206102c986828701610250565b92505060406102da8682870161027c565b9150509250925092565b6102ed81610215565b82525050565b600060208201905061030860008301846102e4565b92915050565b60805160a0516113ac61034f600039600081816104df0152818161083a0152610c500152600081816106ee015281816109000152610a4801526113ac6000f3fe608060405234801561001057600080fd5b50600436106101365760003560e01c806380faa57d116100b8578063cd3daf9d1161007c578063cd3daf9d14610317578063df136d6514610335578063e9fad8ee14610353578063ebe2b12b1461035d578063f2fde38b1461037b578063f7c618c11461039757610136565b806380faa57d146102715780638b8763471461028f5780638da5cb5b146102bf578063a694fc3a146102dd578063c8f33c91146102f957610136565b80632e1a7d4d116100ff5780632e1a7d4d146102055780633d18b91214610221578063715018a61461022b57806372f702f3146102355780637b0a47ee1461025357610136565b80628cc2621461013b5780630700037d1461016b57806318160ddd1461019b578063246132f9146101b957806327e235e3146101d5575b600080fd5b61015560048036038101906101509190610f5d565b6103b5565b6040516101629190610fa3565b60405180910390f35b61018560048036038101906101809190610f5d565b6104b7565b6040516101929190610fa3565b60405180910390f35b6101a36104cf565b6040516101b09190610fa3565b60405180910390f35b6101d360048036038101906101ce9190610fea565b6104d5565b005b6101ef60048036038101906101ea9190610f5d565b610611565b6040516101fc9190610fa3565b60405180910390f35b61021f600480360381019061021a919061102a565b610629565b005b61022961079e565b005b6102336108ea565b005b61023d6108fe565b60405161024a91906110b6565b60405180910390f35b61025b610922565b6040516102689190610fa3565b60405180910390f35b610279610928565b6040516102869190610fa3565b60405180910390f35b6102a960048036038101906102a49190610f5d565b610942565b6040516102b69190610fa3565b60405180910390f35b6102c761095a565b6040516102d491906110e0565b60405180910390f35b6102f760048036038101906102f2919061102a565b610983565b005b610301610afa565b60405161030e9190610fa3565b60405180910390f35b61031f610b00565b60405161032c9190610fa3565b60405180910390f35b61033d610b6a565b60405161034a9190610fa3565b60405180910390f35b61035b610b70565b005b610365610bc2565b6040516103729190610fa3565b60405180910390f35b61039560048036038101906103909190610f5d565b610bc8565b005b61039f610c4e565b6040516103ac91906110b6565b60405180910390f35b6000600760008373ffffffffffffffffffffffffffffffffffffffff1673ffffffffffffffffffffffffffffffffffffffff16815260200190815260200160002054670de0b6b3a7640000600660008573ffffffffffffffffffffffffffffffffffffffff1673ffffffffffffffffffffffffffffffffffffffff16815260200190815260200160002054610448610b00565b610452919061112a565b600860008673ffffffffffffffffffffffffffffffffffffffff1673ffffffffffffffffffffffffffffffffffffffff1681526020019081526020016000205461049c919061115e565b6104a691906111cf565b6104b09190611200565b9050919050565b60076020528060005260406000206000915090505481565b60095481565b6104dd610c72565b7f000000000000000000000000000000000000000000000000000000000000000073ffffffffffffffffffffffffffffffffffffffff166323b872dd3330856040518463ffffffff1660e01b815260040161053a93929190611234565b6020604051808303816000875af1158015610559573d6000803e3d6000fd5b505050506040513d601f19601f8201168201806040525081019061057d91906112a3565b61058657600080fd5b6105906000610cf9565b60035442106105b05780826105a591906111cf565b6002819055506105f4565b6000426003546105c0919061112a565b90506000600254826105d2919061115e565b90508281856105e19190611200565b6105eb91906111cf565b60028190555050505b80426106009190611200565b600381905550426004819055505050565b60086020528060005260406000206000915090505481565b610631610ddf565b60008111610674576040517f08c379a000000000000000000000000000000000000000000000000000000000815260040161066b9061132d565b60405180910390fd5b61067d33610cf9565b806009600082825461068f919061112a565b9250508190555080600860003373ffffffffffffffffffffffffffffffffffffffff1673ffffffffffffffffffffffffffffffffffffffff16815260200190815260200160002060008282546106e5919061112a565b925050819055507f000000000000000000000000000000000000000000000000000000000000000073ffffffffffffffffffffffffffffffffffffffff1663a9059cbb33836040518363ffffffff1660e01b815260040161074792919061134d565b6020604051808303816000875af1158015610766573d6000803e3d6000fd5b505050506040513d601f19601f8201168201806040525081019061078a91906112a3565b61079357600080fd5b61079b610e25565b50565b6107a6610ddf565b6107af33610cf9565b6000600760003373ffffffffffffffffffffffffffffffffffffffff1673ffffffffffffffffffffffffffffffffffffffff1681526020019081526020016000205490506000600760003373ffffffffffffffffffffffffffffffffffffffff1673ffffffffffffffffffffffffffffffffffffffff168152602001908152602001600020819055507f000000000000000000000000000000000000000000000000000000000000000073ffffffffffffffffffffffffffffffffffffffff1663a9059cbb33836040518363ffffffff1660e01b815260040161089392919061134d565b6020604051808303816000875af11580156108b2573d6000803e3d6000fd5b505050506040513d601f19601f820116820180604052508101906108d691906112a3565b6108df57600080fd5b506108e8610e25565b565b6108f2610c72565b6108fc6000610e2e565b565b7f000000000000000000000000000000000000000000000000000000000000000081565b60025481565b6000600354421061093b5760035461093d565b425b905090565b60066020528060005260406000206000915090505481565b60008060009054906101000a900473ffffffffffffffffffffffffffffffffffffffff16905090565b61098b610ddf565b600081116109ce576040517f08c379a00000000000000000000000000000000000000000000000000000000081526004016109c59061132d565b60405180910390fd5b6109d733610cf9565b80600960008282546109e99190611200565b9250508190555080600860003373ffffffffffffffffffffffffffffffffffffffff1673ffffffffffffffffffffffffffffffffffffffff1681526020019081526020016000206000828254610a3f9190611200565b925050819055507f000000000000000000000000000000000000000000000000000000000000000073ffffffffffffffffffffffffffffffffffffffff166323b872dd3330846040518463ffffffff1660e01b8152600401610aa393929190611234565b6020604051808303816000875af1158015610ac2573d6000803e3d6000fd5b505050506040513d601f19601f82011682018060405250810190610ae691906112a3565b610aef57600080fd5b610af7610e25565b50565b60045481565b60008060095403610b15576005549050610b67565b600954670de0b6b3a7640000600254600454610b2f610928565b610b39919061112a565b610b43919061115e565b610b4d919061115e565b610b5791906111cf565b600554610b649190611200565b90505b90565b60055481565b610bb8600860003373ffffffffffffffffffffffffffffffffffffffff1673ffffffffffffffffffffffffffffffffffffffff16815260200190815260200160002054610629565b610bc061079e565b565b60035481565b610bd0610c72565b600073ffffffffffffffffffffffffffffffffffffffff168173ffffffffffffffffffffffffffffffffffffffff1603610c425760006040517f1e4fbdf7000000000000000000000000000000000000000000000000000000008152600401610c3991906110e0565b60405180910390fd5b610c4b81610e2e565b50565b7f000000000000000000000000000000000000000000000000000000000000000081565b610c7a610ef2565b73ffffffffffffffffffffffffffffffffffffffff16610c9861095a565b73ffffffffffffffffffffffffffffffffffffffff1614610cf757610cbb610ef2565b6040517f118cdaa7000000000000000000000000000000000000000000000000000000008152600401610cee91906110e0565b60405180910390fd5b565b610d01610b00565b600581905550610d0f610928565b600481905550600073ffffffffffffffffffffffffffffffffffffffff168173ffffffffffffffffffffffffffffffffffffffff1614610ddc57610d52816103b5565b600760008373ffffffffffffffffffffffffffffffffffffffff1673ffffffffffffffffffffffffffffffffffffffff16815260200190815260200160002081905550600554600660008373ffffffffffffffffffffffffffffffffffffffff1673ffffffffffffffffffffffffffffffffffffffff168152602001908152602001600020819055505b50565b600260015403610e1b576040517f3ee5aeb500000000000000000000000000000000000000000000000000000000815260040160405180910390fd5b6002600181905550565b60018081905550565b60008060009054906101000a900473ffffffffffffffffffffffffffffffffffffffff169050816000806101000a81548173ffffffffffffffffffffffffffffffffffffffff021916908373ffffffffffffffffffffffffffffffffffffffff1602179055508173ffffffffffffffffffffffffffffffffffffffff168173ffffffffffffffffffffffffffffffffffffffff167f8be0079c531659141344cd1fd0a4f28419497f9722a3daafe3b4186f6b6457e060405160405180910390a35050565b600033905090565b600080fd5b600073ffffffffffffffffffffffffffffffffffffffff82169050919050565b6000610f2a82610eff565b9050919050565b610f3a81610f1f565b8114610f4557600080fd5b50565b600081359050610f5781610f31565b92915050565b600060208284031215610f7357610f72610efa565b5b6000610f8184828501610f48565b91505092915050565b6000819050919050565b610f9d81610f8a565b82525050565b6000602082019050610fb86000830184610f94565b92915050565b610fc781610f8a565b8114610fd257600080fd5b50565b600081359050610fe481610fbe565b92915050565b6000806040838503121561100157611000610efa565b5b600061100f85828601610fd5565b925050602061102085828601610fd5565b9150509250929050565b6000602082840312156110405761103f610efa565b5b600061104e84828501610fd5565b91505092915050565b6000819050919050565b600061107c61107761107284610eff565b611057565b610eff565b9050919050565b600061108e82611061565b9050919050565b60006110a082611083565b9050919050565b6110b081611095565b82525050565b60006020820190506110cb60008301846110a7565b92915050565b6110da81610f1f565b82525050565b60006020820190506110f560008301846110d1565b92915050565b7f4e487b7100000000000000000000000000000000000000000000000000000000600052601160045260246000fd5b600061113582610f8a565b915061114083610f8a565b9250828203905081811115611158576111576110fb565b5b92915050565b600061116982610f8a565b915061117483610f8a565b925082820261118281610f8a565b91508282048414831517611199576111986110fb565b5b5092915050565b7f4e487b7100000000000000000000000000000000000000000000000000000000600052601260045260246000fd5b60006111da82610f8a565b91506111e583610f8a565b9250826111f5576111f46111a0565b5b828204905092915050565b600061120b82610f8a565b915061121683610f8a565b925082820190508082111561122e5761122d6110fb565b5b92915050565b600060608201905061124960008301866110d1565b61125660208301856110d1565b6112636040830184610f94565b949350505050565b60008115159050919050565b6112808161126b565b811461128b57600080fd5b50565b60008151905061129d81611277565b92915050565b6000602082840312156112b9576112b8610efa565b5b60006112c78482850161128e565b91505092915050565b600082825260208201905092915050565b7f416d6f756e743d30000000000000000000000000000000000000000000000000600082015250565b60006113176008836112d0565b9150611322826112e1565b602082019050919050565b600060208201905081810360008301526113468161130a565b9050919050565b600060408201905061136260008301856110d1565b61136f6020830184610f94565b939250505056fea26469706673582212200ef2ff1ff747ded1418c99959149063dd39e6ebc881ad816dbbf5acb9cf31b0664736f6c634300081c0033",
  "linkReferences": {},
  "deployedLinkReferences": {}
}